{
  "_format": "hh-sol-artifact-1",
  "contractName": "PropertyRegistry",
  "sourceName": "contracts/PropertyRegistry.sol",
  "abi": [
    {
      "anonymous": false,
      "inputs": [
        {
          "indexed": false,
          "internalType": "uint256",
          "name": "propertyId",
          "type": "uint256"
        },
        {
          "indexed": false,
          "internalType": "string",
          "name": "title",
          "type": "string"
        },
        {
          "indexed": false,
          "internalType": "uint256",
          "name": "price",
          "type": "uint256"
        },
        {
          "indexed": false,
          "internalType": "address",
          "name": "owner",
          "type": "address"
        }
      ],
      "name": "PropertyListed",
      "type": "event"
    },
    {
      "anonymous": false,
      "inputs": [
        {
          "indexed": false,
          "internalType": "uint256",
          "name": "propertyId",
          "type": "uint256"
        },
        {
          "indexed": false,
          "internalType": "address",
          "name": "from",
          "type": "address"
        },
        {
          "indexed": false,
          "internalType": "address",
          "name": "to",
          "type": "address"
        },
        {
          "indexed": false,
          "internalType": "uint256",
          "name": "price",
          "type": "uint256"
        }
      ],
      "name": "PropertyPurchased",
      "type": "event"
    },
    {
      "anonymous": false,
      "inputs": [
        {
          "indexed": false,
          "internalType": "uint256",
          "name": "propertyId",
          "type": "uint256"
        },
        {
          "indexed": false,
          "internalType": "address",
          "name": "newOwner",
          "type": "address"
        }
      ],
      "name": "PropertyTransferred",
      "type": "event"
    },
    {
      "anonymous": false,
      "inputs": [
        {
          "indexed": false,
          "internalType": "uint256",
          "name": "propertyId",
          "type": "uint256"
        }
      ],
      "name": "PropertyUnlisted",
      "type": "event"
    },
    {
      "inputs": [
        {
          "internalType": "string",
          "name": "_title",
          "type": "string"
        },
        {
          "internalType": "uint256",
          "name": "_price",
          "type": "uint256"
        }
      ],
      "name": "addProperty",
      "outputs": [],
      "stateMutability": "nonpayable",
      "type": "function"
    },
    {
      "inputs": [
        {
          "internalType": "uint256",
          "name": "_propertyId",
          "type": "uint256"
        }
      ],
      "name": "buyProperty",
      "outputs": [],
      "stateMutability": "payable",
      "type": "function"
    },
    {
      "inputs": [
        {
          "internalType": "uint256",
          "name": "_propertyId",
          "type": "uint256"
        }
      ],
      "name": "getProperty",
      "outputs": [
        {
          "internalType": "string",
          "name": "",
          "type": "string"
        },
        {
          "internalType": "uint256",
          "name": "",
          "type": "uint256"
        },
        {
          "internalType": "address",
          "name": "",
          "type": "address"
        },
        {
          "internalType": "bool",
          "name": "",
          "type": "bool"
        }
      ],
      "stateMutability": "view",
      "type": "function"
    },
    {
      "inputs": [
        {
          "internalType": "uint256",
          "name": "_propertyId",
          "type": "uint256"
        }
      ],
      "name": "listProperty",
      "outputs": [],
      "stateMutability": "nonpayable",
      "type": "function"
    },
    {
      "inputs": [
        {
          "internalType": "uint256",
          "name": "",
          "type": "uint256"
        }
      ],
      "name": "properties",
      "outputs": [
        {
          "internalType": "string",
          "name": "title",
          "type": "string"
        },
        {
          "internalType": "uint256",
          "name": "price",
          "type": "uint256"
        },
        {
          "internalType": "address",
          "name": "owner",
          "type": "address"
        },
        {
          "internalType": "bool",
          "name": "isListed",
          "type": "bool"
        }
      ],
      "stateMutability": "view",
      "type": "function"
    },
    {
      "inputs": [],
      "name": "propertyCount",
      "outputs": [
        {
          "internalType": "uint256",
          "name": "",
          "type": "uint256"
        }
      ],
      "stateMutability": "view",
      "type": "function"
    },
    {
      "inputs": [
        {
          "internalType": "uint256",
          "name": "_propertyId",
          "type": "uint256"
        },
        {
          "internalType": "address",
          "name": "_newOwner",
          "type": "address"
        }
      ],
      "name": "transferProperty",
      "outputs": [],
      "stateMutability": "nonpayable",
      "type": "function"
    },
    {
      "inputs": [
        {
          "internalType": "uint256",
          "name": "_propertyId",
          "type": "uint256"
        }
      ],
      "name": "unlistProperty",
      "outputs": [],
      "stateMutability": "nonpayable",
      "type": "function"
    }
  ],
  "bytecode": "0x6080604052348015600f57600080fd5b5061175d8061001f6000396000f3fe60806040526004361061007b5760003560e01c8063c361a3351161004e578063c361a3351461012e578063f54e1aef14610159578063f7b1080814610182578063ff356237146101c25761007b565b806332665ffb146100805780636fa830a6146100c0578063841ad8b9146100dc578063b6aee1cf14610105575b600080fd5b34801561008c57600080fd5b506100a760048036038101906100a29190610b76565b6101eb565b6040516100b79493929190610c9e565b60405180910390f35b6100da60048036038101906100d59190610b76565b610343565b005b3480156100e857600080fd5b5061010360048036038101906100fe9190610b76565b610595565b005b34801561011157600080fd5b5061012c60048036038101906101279190610b76565b6106a0565b005b34801561013a57600080fd5b506101436107da565b6040516101509190610cea565b60405180910390f35b34801561016557600080fd5b50610180600480360381019061017b9190610e3a565b6107e0565b005b34801561018e57600080fd5b506101a960048036038101906101a49190610b76565b610913565b6040516101b99493929190610c9e565b60405180910390f35b3480156101ce57600080fd5b506101e960048036038101906101e49190610ec2565b6109f8565b005b606060008060008060008087815260200190815260200160002060405180608001604052908160008201805461022090610f31565b80601f016020809104026020016040519081016040528092919081815260200182805461024c90610f31565b80156102995780601f1061026e57610100808354040283529160200191610299565b820191906000526020600020905b81548152906001019060200180831161027c57829003601f168201915b50505050508152602001600182015481526020016002820160009054906101000a900473ffffffffffffffffffffffffffffffffffffffff1673ffffffffffffffffffffffffffffffffffffffff1673ffffffffffffffffffffffffffffffffffffffff1681526020016002820160149054906101000a900460ff161515151581525050905080600001518160200151826040015183606001519450945094509450509193509193565b600080600083815260200190815260200160002090508060020160149054906101000a900460ff166103aa576040517f08c379a00000000000000000000000000000000000000000000000000000000081526004016103a190610fae565b60405180910390fd5b3373ffffffffffffffffffffffffffffffffffffffff168160020160009054906101000a900473ffffffffffffffffffffffffffffffffffffffff1673ffffffffffffffffffffffffffffffffffffffff160361043c576040517f08c379a000000000000000000000000000000000000000000000000000000000815260040161043390611040565b60405180910390fd5b8060010154341015610483576040517f08c379a000000000000000000000000000000000000000000000000000000000815260040161047a906110d2565b60405180910390fd5b60008160020160009054906101000a900473ffffffffffffffffffffffffffffffffffffffff169050338260020160006101000a81548173ffffffffffffffffffffffffffffffffffffffff021916908373ffffffffffffffffffffffffffffffffffffffff16021790555060008260020160146101000a81548160ff0219169083151502179055508073ffffffffffffffffffffffffffffffffffffffff166108fc349081150290604051600060405180830381858888f19350505050158015610552573d6000803e3d6000fd5b507fd78c5d7b2c2d6aec7166c055cf40ad27884c2612c3073c68c2e7ed76ccd979f88382333460405161058894939291906110f2565b60405180910390a1505050565b3373ffffffffffffffffffffffffffffffffffffffff1660008083815260200190815260200160002060020160009054906101000a900473ffffffffffffffffffffffffffffffffffffffff1673ffffffffffffffffffffffffffffffffffffffff1614610638576040517f08c379a000000000000000000000000000000000000000000000000000000000815260040161062f906111a9565b60405180910390fd5b600080600083815260200190815260200160002060020160146101000a81548160ff0219169083151502179055507f3b818a41b4017c13a2ffa077cad15f93753644f8625bdafb19f3f08d53c95924816040516106959190610cea565b60405180910390a150565b3373ffffffffffffffffffffffffffffffffffffffff1660008083815260200190815260200160002060020160009054906101000a900473ffffffffffffffffffffffffffffffffffffffff1673ffffffffffffffffffffffffffffffffffffffff1614610743576040517f08c379a000000000000000000000000000000000000000000000000000000000815260040161073a9061123b565b60405180910390fd5b600160008083815260200190815260200160002060020160146101000a81548160ff0219169083151502179055507fe0de464e657fdeb1f668e5e64fb92e159b463403ee20baa688fe16a63b0542c48160008084815260200190815260200160002060000160008085815260200190815260200160002060010154336040516107cf94939291906112f4565b60405180910390a150565b60015481565b600160008154809291906107f39061136f565b919050555060405180608001604052808381526020018281526020013373ffffffffffffffffffffffffffffffffffffffff168152602001600015158152506000806001548152602001908152602001600020600082015181600001908161085b919061154e565b506020820151816001015560408201518160020160006101000a81548173ffffffffffffffffffffffffffffffffffffffff021916908373ffffffffffffffffffffffffffffffffffffffff16021790555060608201518160020160146101000a81548160ff0219169083151502179055509050507fe0de464e657fdeb1f668e5e64fb92e159b463403ee20baa688fe16a63b0542c46001548383336040516109079493929190611620565b60405180910390a15050565b600060205280600052604060002060009150905080600001805461093690610f31565b80601f016020809104026020016040519081016040528092919081815260200182805461096290610f31565b80156109af5780601f10610984576101008083540402835291602001916109af565b820191906000526020600020905b81548152906001019060200180831161099257829003601f168201915b5050505050908060010154908060020160009054906101000a900473ffffffffffffffffffffffffffffffffffffffff16908060020160149054906101000a900460ff16905084565b3373ffffffffffffffffffffffffffffffffffffffff1660008084815260200190815260200160002060020160009054906101000a900473ffffffffffffffffffffffffffffffffffffffff1673ffffffffffffffffffffffffffffffffffffffff1614610a9b576040517f08c379a0000000000000000000000000000000000000000000000000000000008152600401610a92906116de565b60405180910390fd5b8060008084815260200190815260200160002060020160006101000a81548173ffffffffffffffffffffffffffffffffffffffff021916908373ffffffffffffffffffffffffffffffffffffffff1602179055507f8112a0a075a8fbda3b9c8c9cd01686a7922300f54c3793c450bb8ea8e4f41c1b8282604051610b209291906116fe565b60405180910390a15050565b6000604051905090565b600080fd5b600080fd5b6000819050919050565b610b5381610b40565b8114610b5e57600080fd5b50565b600081359050610b7081610b4a565b92915050565b600060208284031215610b8c57610b8b610b36565b5b6000610b9a84828501610b61565b91505092915050565b600081519050919050565b600082825260208201905092915050565b60005b83811015610bdd578082015181840152602081019050610bc2565b60008484015250505050565b6000601f19601f8301169050919050565b6000610c0582610ba3565b610c0f8185610bae565b9350610c1f818560208601610bbf565b610c2881610be9565b840191505092915050565b610c3c81610b40565b82525050565b600073ffffffffffffffffffffffffffffffffffffffff82169050919050565b6000610c6d82610c42565b9050919050565b610c7d81610c62565b82525050565b60008115159050919050565b610c9881610c83565b82525050565b60006080820190508181036000830152610cb88187610bfa565b9050610cc76020830186610c33565b610cd46040830185610c74565b610ce16060830184610c8f565b95945050505050565b6000602082019050610cff6000830184610c33565b92915050565b600080fd5b600080fd5b7f4e487b7100000000000000000000000000000000000000000000000000000000600052604160045260246000fd5b610d4782610be9565b810181811067ffffffffffffffff82111715610d6657610d65610d0f565b5b80604052505050565b6000610d79610b2c565b9050610d858282610d3e565b919050565b600067ffffffffffffffff821115610da557610da4610d0f565b5b610dae82610be9565b9050602081019050919050565b82818337600083830152505050565b6000610ddd610dd884610d8a565b610d6f565b905082815260208101848484011115610df957610df8610d0a565b5b610e04848285610dbb565b509392505050565b600082601f830112610e2157610e20610d05565b5b8135610e31848260208601610dca565b91505092915050565b60008060408385031215610e5157610e50610b36565b5b600083013567ffffffffffffffff811115610e6f57610e6e610b3b565b5b610e7b85828601610e0c565b9250506020610e8c85828601610b61565b9150509250929050565b610e9f81610c62565b8114610eaa57600080fd5b50565b600081359050610ebc81610e96565b92915050565b60008060408385031215610ed957610ed8610b36565b5b6000610ee785828601610b61565b9250506020610ef885828601610ead565b9150509250929050565b7f4e487b7100000000000000000000000000000000000000000000000000000000600052602260045260246000fd5b60006002820490506001821680610f4957607f821691505b602082108103610f5c57610f5b610f02565b5b50919050565b7f50726f7065727479206973206e6f74206c697374656420666f722073616c6500600082015250565b6000610f98601f83610bae565b9150610fa382610f62565b602082019050919050565b60006020820190508181036000830152610fc781610f8b565b9050919050565b7f4f776e65722063616e6e6f7420627579207468656972206f776e2070726f706560008201527f7274790000000000000000000000000000000000000000000000000000000000602082015250565b600061102a602383610bae565b915061103582610fce565b604082019050919050565b600060208201905081810360008301526110598161101d565b9050919050565b7f496e73756666696369656e7420457468657220746f207075726368617365207060008201527f726f706572747900000000000000000000000000000000000000000000000000602082015250565b60006110bc602783610bae565b91506110c782611060565b604082019050919050565b600060208201905081810360008301526110eb816110af565b9050919050565b60006080820190506111076000830187610c33565b6111146020830186610c74565b6111216040830185610c74565b61112e6060830184610c33565b95945050505050565b7f4f6e6c7920746865206f776e65722063616e20756e6c6973742074686973207060008201527f726f706572747900000000000000000000000000000000000000000000000000602082015250565b6000611193602783610bae565b915061119e82611137565b604082019050919050565b600060208201905081810360008301526111c281611186565b9050919050565b7f4f6e6c7920746865206f776e65722063616e206c69737420746869732070726f60008201527f7065727479000000000000000000000000000000000000000000000000000000602082015250565b6000611225602583610bae565b9150611230826111c9565b604082019050919050565b6000602082019050818103600083015261125481611218565b9050919050565b60008190508160005260206000209050919050565b6000815461127d81610f31565b6112878186610bae565b945060018216600081146112a257600181146112b8576112eb565b60ff1983168652811515602002860193506112eb565b6112c18561125b565b60005b838110156112e3578154818901526001820191506020810190506112c4565b808801955050505b50505092915050565b60006080820190506113096000830187610c33565b818103602083015261131b8186611270565b905061132a6040830185610c33565b6113376060830184610c74565b95945050505050565b7f4e487b7100000000000000000000000000000000000000000000000000000000600052601160045260246000fd5b600061137a82610b40565b91507fffffffffffffffffffffffffffffffffffffffffffffffffffffffffffffffff82036113ac576113ab611340565b5b600182019050919050565b60006020601f8301049050919050565b600082821b905092915050565b6000600883026114047fffffffffffffffffffffffffffffffffffffffffffffffffffffffffffffffff826113c7565b61140e86836113c7565b95508019841693508086168417925050509392505050565b6000819050919050565b600061144b61144661144184610b40565b611426565b610b40565b9050919050565b6000819050919050565b61146583611430565b61147961147182611452565b8484546113d4565b825550505050565b600090565b61148e611481565b61149981848461145c565b505050565b5b818110156114bd576114b2600082611486565b60018101905061149f565b5050565b601f821115611502576114d38161125b565b6114dc846113b7565b810160208510156114eb578190505b6114ff6114f7856113b7565b83018261149e565b50505b505050565b600082821c905092915050565b600061152560001984600802611507565b1980831691505092915050565b600061153e8383611514565b9150826002028217905092915050565b61155782610ba3565b67ffffffffffffffff8111156115705761156f610d0f565b5b61157a8254610f31565b6115858282856114c1565b600060209050601f8311600181146115b857600084156115a6578287015190505b6115b08582611532565b865550611618565b601f1984166115c68661125b565b60005b828110156115ee578489015182556001820191506020850194506020810190506115c9565b8683101561160b5784890151611607601f891682611514565b8355505b6001600288020188555050505b505050505050565b60006080820190506116356000830187610c33565b81810360208301526116478186610bfa565b90506116566040830185610c33565b6116636060830184610c74565b95945050505050565b7f4f6e6c7920746865206f776e65722063616e207472616e73666572207468697360008201527f2070726f70657274790000000000000000000000000000000000000000000000602082015250565b60006116c8602983610bae565b91506116d38261166c565b604082019050919050565b600060208201905081810360008301526116f7816116bb565b9050919050565b60006040820190506117136000830185610c33565b6117206020830184610c74565b939250505056fea2646970667358221220116edb08eec9bb50be69d8db03334a1f16e163334b0225e4901acccbc71c45e564736f6c634300081c0033",
  "linkReferences": {},
  "deployedLinkReferences": {}
}